:020000040800F2
:10000000100D002091010008293800080D33000868
:1000100000000000000000000000000000000000E0
:10002000000000000000000000000000333800085D
:1000300000000000000000003138000835380008DA
:10004000A301000800000000A3010008A3010008AC
:10005000A3010008A3010008A3010008A3010008F0
:1000600000000000A3010008A3010008A30100088C
:10007000A3010008A3010008A3010008000000007C
:10008000A30100080000000000000000A301000818
:1000900000000000A3010008A3010008A30100085C
:1000A00000000000A301000800000000A3010008F8
:1000B00000F002F800F040F80CA030C8083824180E
:1000C0002D18671EA246AB4654465D46AC4201D190
:1000D00000F032F87E460F3EB6460FCC0126334282
:1000E00000D0FB1A3343A246AB46184798420000A3
:1000F000B84200000023002400250026103A01D356
:1001000078C1FBD8520700D330C100D50B607047CF
:1001100010B5642902D100F0B3F810BD002010BD65
:100120001FB50098019901F066F800F0E9FD1FBDC8
:1001300010B500F051FE10BD00F080FE1146FFF733
:10014000EFFF03F035FD01F027F803B4FFF7F0FFF0
:1001500003BC01F01FF9000070B505460C461646B9
:1001600002E00FCC0FC5103E102EFAD2082E02D39B
:1001700003CC03C5083E042E07D301CC01C5361FAE
:1001800003E021782970641C6D1C761EF9D270BDC5
:100190000748804707480047FEE7FEE7FEE7FEE71F
:1001A000FEE7FEE704480549054A064B7047000094
:1001B000A3380008B100000810070020100D00202F
:1001C00010090020100900204343514330B55C184A
:1001D000010C130C0D4692B25D4380B251432C19B1
:1001E000054655430A0C09044D1962415843010C58
:1001F00000044019514130BD0FB4054910B503AAA0
:10020000029800F041FC10BC08BC04B01847000084
:1002100044050020F8B50E46044600202062204622
:10022000E1688847002829D0252802D06268A168A3
:1002300020E0E16820460027884705001ED02846B8
:100240004138192802D80127FF02203532462046BE
:1002500027602946FFF75CFF002808D0012804D05A
:10026000F61DF608F6000836D9E7361DD7E76268AE
:100270002846A1689047206A401CCFE7206AF8BD55
:10028000F7B5002575291068009914A611D0C0464D
:10029000C046002802DA404211A608E00099096829
:1002A0008A0701D50FA602E0490704D50EA601254D
:1002B00001E0C046C046009F0024243704E000F05F
:1002C000F7FB30313955641C0028F8D12B463246F3
:1002D0002146009800F07FFBFEBD000000000000FA
:1002E0002D0000002B0000002000000010B5044687
:1002F00003E003F070FF401C08D020780549641C1F
:100300000028F6D10A2003F066FF10BD0020C0438C
:1003100010BD000044050020F8B5042A2CD3830743
:1003200012D00B78491C0370401C521E83070BD05F
:100330000B78491C0370401C521E830704D00B78B5
:10034000491C0370401C521E8B079B0F05D0C91A15
:10035000DF002023DE1B08C90AE0FFF7FDFEF8BD21
:100360001D4608C9FD401C46B4402C4310C0121F56
:10037000042AF5D2F308C91A521EF0D40B78491C8E
:100380000370401C521EEAD40B78491C0370401CB9
:10039000012AE4D409780170F8BD01E004C0091F06
:1003A0000429FBD28B0701D50280801CC90700D02D
:1003B0000270704700290BD0C30702D00270401CA6
:1003C000491E022904D3830702D50280801C891E9E
:1003D000E3E70022EEE70022DFE7000082078B0759
:1003E0009A423FD170B5920F0AD0032402780B785D
:1003F000401C491C002A33D09A4231D12042F5D109
:10040000214EF40104C808C9951B9543254018D115
:100410009A420FD104C808C9951B9543254010D1B5
:100420009A4207D104C808C9951B9543254008D1B5
:100430009A42E7D012BA1BBA01209A4200D2404237
:1004400070BD12BA1BBA2DBA18241000E040190072
:10045000E140401A05D12E00E64002D1083CF4D11B
:10046000D01A70BD02780B78401C491C002A09D0B4
:100470009A4207D102780B78401C491C002A01D00F
:100480009A42EFD0D01A70470101010170477047BE
:1004900070470000F0B5F94D0C091E092C402E40A4
:1004A0002F468BB0A7437DD0B543FCD0002E7AD029
:1004B000002CFCD00D465D40ED0F2543AC1BFF2505
:1004C000AD0464190894C502440DC9022143500DBE
:1004D000DC0204430120C00701430443D20201911E
:1004E000200C110C00958C46010423468B430A9185
:1004F00061460904E24D8A430991010A7D44491984
:100500008039097805464D4301266D18F605751B9F
:100510006943C90C640B891C4C436418B5012C1B3E
:10052000250C2E04B4434C434D43210C6918890912
:100530000591009DE90701D00121C90704912C46CE
:1005400001996708CD072F434C08059DE10B4D43EA
:100550002D0C29466646754302950D4645432E46A9
:10056000029D7D1BB44100950D465D4301942C0C0A
:100570002F040D465543AE462D0C3D430295039482
:100580007546049C2D04641B049406D2029C039DB2
:10059000641C002675410395029401AC70CC009F49
:1005A0007D1B01E03EE162E1B44109040095079141
:1005B00001940599A4086143090C0C464443650B5A
:1005C000E7040C4666467443A646640B3C43039519
:1005D00002947446049DE4042C1B049406D2029CED
:1005E000039D641C002675410395029401AC70CCF8
:1005F000009F7D1BB44101940C465C430095650F40
:10060000E7000C465443A646640F3C43039502940E
:100610007446049DE4002C1B049406D2029C039DA6
:10062000641C002675410395029401AC70CC009FB8
:100630007D1BB441AE09AF06049DC900AD092F432F
:10064000049DA406AD060495079D344369180791DF
:10065000059DE10B4D432D0C2946664675430295D9
:100660000D4645432E46029D7D1BB44100950D4627
:100670005D4301942C0C2F040D465543AE462D0CC2
:100680003D43029503947546049C2D04641B049419
:1006900006D2029C039D641C0026754103950294BA
:1006A00001AC70CC009F7D1BB44101948C05069475
:1006B000079C890A611800950791019C0599A40877
:1006C0006143090C0D464543680BEF040D46644633
:1006D00065436C0B3C43049FED047D1BAC4602D28A
:1006E0000025641C6841009E019D371B854108461A
:1006F000584301950C46460FC5005443600F2843EC
:100700006546E4002C1B02D20025401C6E41019D71
:100710003F1AB5412846BD09800628438446A009F2
:10072000BF064E020699A40676180743079D0020CF
:1007300068410A99079019430020099B0090604680
:10074000FF1913434041E20F64003A43A4460446B4
:10075000D71A8C41A04203D90120009020463A4686
:10076000C70F941840416246D20F2243644664008A
:100770000494009CBE466400D71AA446044602971F
:100780008C417746002F01D1A04204D96046401C1D
:100790008446029A2046C40FA64694184041049A03
:1007A0000546D20F224364466400D31A8D41714638
:1007B000002901D1A84202D928461A46641C1043D8
:1007C0000122002800D0164361020020079B8919EE
:1007D00004465C410223002C02DB491813466441A5
:1007E000089DCE0A2D145D194B056705E10A2C05FD
:1007F0000D1908993E43C9076940002B08D0934062
:1008000006D30022761C5141002B01D176087600D8
:100810001C4A002D43DB154241D0AA433FD030464D
:100820000BB0F0BD06180D464D41174C7642AC4159
:100830001AD395181C465C41134A6D42A24113D34A
:10084000012252054C00D4420AD15C00D4420BD0A4
:100850004B4002D592021143E2E749004908DFE725
:100860005940C90FC90718E000200849D8E70548D2
:1008700001420DD10342F7D0F2E700000000FF076C
:10088000A43D00000000F07F0000E0FF0000F87FC2
:10089000114859400143C01241400020C0E70123E4
:1008A000089A9B069A4205DC032252078918C90F51
:1008B000C907B5E7052252078918074A1143D21222
:1008C0005140ADE770B515461C4602460B4628461A
:1008D0002146FFF7DFFD70BDFFFFFF7F0346CA0221
:1008E000400D10B510430A1504D00124E40720433D
:1008F000002A05DB0A4CA21A04D4D040FF2A00DDEE
:10090000002010BD4A00002B01D0012000E0002093
:10091000101801225205D042F2D8C817C04310BDAA
:100920001E0400000121C9050123411842001B06D5
:10093000D3185B0E0AD0C1100722D20689184007CF
:100940005242D14201D5520089187047090208D598
:100950000146002A03D0C10FC90700207047104686
:100960007047420202D00020024970470721090562
:100970000143F4E70000F87F1F22030C02D10F228D
:1009800000041CD0030E01D10002083A030F01D16C
:100990000001121F830F01D18000921E002801DB8D
:1009A0004000521ED20551180212511819229040CF
:1009B00004D3491C002801D1490849000846704762
:1009C000C10FC90700D04042012292071143D3E76B
:1009D00001218907D0E7FFB504460D4681B02430D8
:1009E00000902168880604D51022E06991432160B7
:1009F00000E00120A84201DD471B00E00027049829
:100A0000A1697A191018081AA0612078C00602D4CA
:100A10002046C046C046002608E003986268A168E8
:100A2000805D9047206A401C761C206204988642B4
:100A3000F3DB2078C0060AD52046C046C04606E053
:100A40006268A16830209047206A401C20623846C6
:100A50007F1E0028F4DC07E000986268A168405D12
:100A60009047206A401C206228466D1E0028F3DC57
:100A70002046C046C0462078000602D5022005B0B8
:100A8000F0BD0120FBE70000084B70B50D467B442C
:100A900000F027F80446284600F036F8002802D077
:100AA0000020C04370BD204670BD000045370000E7
:100AB00001468008081A02091018020A1018020CD0
:100AC0001018C008820012185200891A01E0401C58
:100AD0000A390A29FBD2704701694A1C0261087869
:100AE000704700B58FB0029100210591054901932F
:100AF00079440391114604906846FFF78BFB0FB0D1
:100B000000BD0000E5FFFFFFC0688021084070477E
:100B1000F8B505460C46C8680521C904884301217B
:100B200089050843E060800602D5204600F078FA87
:100B30007149E0680140022903D0204600F01AFA0A
:100B4000BCE00521012249030140D20391420FD1AB
:100B5000C00306D56168E06A884200D80846606034
:100B600006E02069E0626060606902F0A3FEA061B7
:100B7000A1680022EEB200290EDAE06883050BD4EA
:100B8000C943A1600921226049030843E06060680D
:100B9000411C61600670ACE0E06801214903084334
:100BA000E060002020602069002831D1606902F0F7
:100BB00083FE012527462437ED02002816D0A089A0
:100BC0008005800F08D0E06900F057F90028206107
:100BD00002D0E068284318E001202761E061E06866
:100BE000032109028843012189020DE0E06900F038
:100BF00044F900282061EFD0E0682843E0608105D7
:100C0000890F03D1FF2101310843E0602069606052
:100C1000E2683A4F2569D0051FD56168E06A8842CD
:100C200000D80846411B05D02246284600F0ACF902
:100C3000002843D1E068010204D5E5620020656028
:100C4000A06053E0691CE1626160E169491E3843BC
:100C5000A160E06030462E70F8BD100201D53A4028
:100C600009E06068411C61600670E06838430A2E44
:100C7000E06006D00022E16A6068814203D90B4639
:100C800002E00122F7E70346A7895B1B7F0504D436
:100C9000E7699F4201DD002A1ED0814200D801464B
:100CA0000F1A0020E5626560002BA06009DD224676
:100CB0001946284600F068F9002802D00020C043F9
:100CC000F8BD002F08D0A069E5626560C01BA06177
:100CD000E06810210843E060E068000209D561681F
:100CE000A069E562491B40186560A0610120C0430E
:100CF000F8BD3046F8BD0000821000000000010081
:100D000010B543485421FFF766FB42485421FFF7D2
:100D100062FB41485421FFF75EFB40483C493D4B94
:100D2000404A01603E4803603B4810605A1C0A6517
:100D3000411C1965012101653C48354A3AA17844B6
:100D400000F090F9002804D1384878440C3800F0BD
:100D50002BFA38482F4A36A1784400F083F900284E
:100D600004D1344878440C3800F01EFA32482A4A3C
:100D70002FA1784400F076F9002804D12E48784459
:100D80000C3800F011FA40232148DC0000212246F3
:100D900000F0CAF8002804D0244878445C3800F0F9
:100DA00003FA1C4822464023002100F0BDF8002829
:100DB00004D0204878445C3800F0F6F91648224602
:100DC0001023002100F0B0F8002804D01A4878441D
:100DD0005C3800F0E9F910BD0F4870B5006D4408AB
:100DE0000B48640000F0B2F90A4800F0AFF90A4875
:100DF00000F0ACF909E0206D450820466D0000F0D8
:100E0000A5F9204600F06AF82C46002CF3D170BDFD
:100E1000F004002044050020980500200000002078
:100E200004000020080000207200000012360000BC
:100E300077000000FF350000D6350000754600F051
:100E4000B9F9AE46050069465346C008C00085465C
:100E500018B020B5FFF7A6F960BCB64600260027FB
:100E6000C0C5C0C5C0C5C0C5C0C5C0C5C0C5C0C55A
:100E7000403D490849008D46704770B5064600F070
:100E80009DF9056830460B30C408E400B44201D82F
:100E9000002070BD68682A46002818D00168A14269
:100EA00011D30B46214608318B4208D34368011900
:100EB0004B6003681B1B0B605160046001E04168DC
:100EC0005160001D70BD024640680028E6D12146F1
:100ED000284600F07BF90028DCD170BD70B50446CF
:100EE000051F00F06BF90068002C1AD0446801E07F
:100EF00020466468002C01D0AC42F9D301680A187E
:100F0000AA4204D12A6805468918016000E04560BC
:100F100028684119A14205D16168696021684018BB
:100F2000286070BD6C6070BD70B5C468A50713D033
:100F3000650211D4D51FF93D0AD0FF3D6D1E07D0C3
:100F4000FF3DFF3D022D07D101462431012305E07D
:100F5000074E5D1EB54201D3012070BD0161C36122
:100F600041600F2109028C431443C460002070BD0E
:100F7000FFFFFF00C1688022114392039143C160CB
:100F80000021816001607047F7B514460E46334872
:100F9000D5685769054209D03846A16902F0C6FCF8
:100FA000002811DB2D48C0430540E5602B46324642
:100FB0003846009902F0BEFC4200A1695208B21AFC
:100FC00089180028A16104D02046FFF7D3FF002034
:100FD000C043FEBD70B504460569C06A61688842B9
:100FE00000D80846E1680522D2049143E160C903B4
:100FF00014D5A84209D02246411B2846FFF7C4FF5A
:10100000002802D00020C04370BDE562002065606A
:10101000A060E068012109048843E060002070BD01
:1010200010B50446C06820218843E060A16AA06929
:1010300088420ED02046FFF7CDFFE0680321090368
:10104000884310210843E060A06AA0612069E06243
:1010500060600349E0680840E06010BD10000200D5
:10106000BFBFFFFFF7B516460C46104600F06EF8FE
:101070002078611C61280AD0722802D0772839D1E3
:1010800002E00125002404E00225042401E02D4DA6
:1010900008240222032301270878491C2B2806D0A4
:1010A000622807D02039C87F742807D008E01D4384
:1010B0001443F1E7042005433C43EDE710200443CB
:1010C0000098214602F002FC411C13D0002131613E
:1010D00071600121F5604902F1617061200704D55A
:1010E00030460222002100F0BBF8306D38433065F5
:1010F0003046FEBD0020FEBDF8B50D460646124C3A
:10110000206DC10704D0410804D044086400F7E70B
:10111000224610E05420FFF7B0FE070010D07908F7
:10112000206D4900012211430843542120653846AF
:10113000FFF751F93A4629463046FFF793FFF8BDCD
:101140000020F8BD02800000F0040020FEB5044637
:10115000466900690F4F0190E56800200090A807DC
:1011600007D02046FFF736FF304602F09BFB0028F1
:1011700001DA3846FEBD280502D50198FFF7AEFE1C
:101180004C212046FFF727F9206D400840002065DC
:101190000098FEBDFFFFFFFF10B50446C046C046E5
:1011A0002046FEF7D2FF10BD10B500F0D9F800F0D0
:1011B000D1F810BD00487047EC050020004870478A
:1011C000F4050020704770477047704738B50446F3
:1011D0000A4600206946C046C046002805D002469F
:1011E0002046009900F0DCF8012038BD10B5012040
:1011F00000F02BF910BDF8B5C046C04605460020EA
:101200000C461020C0460646A819A0420DD9324609
:1012100069460020C046C046070001D100F015F91C
:101220000098A04200D00546C419FFF7C7FFF61D7D
:1012300007460560F008C0004619284600F008F887
:10124000B44204D031463868A21B00F0A9F8F8BDBA
:1012500000210160416080607047102070470000ED
:10126000F8B5044616460D464769007B800730D026
:10127000384602F021FB00282BD132461026002AE6
:1012800025D0012A02D0022A23D104E0204600F012
:10129000A1F845191BE0384602F00CFBE168314328
:1012A0000028E16004DA2046FFF764FE0120F8BD63
:1012B000C9030BD56268E16A914200D81146A26960
:1012C00089182269891A814200DD08462D18002DEF
:1012D00001DA0220F8BDE16A6068E268814206D264
:1012E0009103E06203D5012149048A433243A66990
:1012F000AE4211DCE16A814201D90B4600E00346AF
:101300009F192369FF1AAF4206DD814201D90F46BA
:1013100000E007469F4206D1202002430020A06043
:10132000A56220600DE0AD1BE669AE1B8142A660A0
:1013300000D90846C01A281A206058196060202079
:101340008243034802400020E26040342072F8BD2E
:10135000BFCFD7FF10B5002801D000F01BF810BD9B
:1013600010B5014602A000F056F8012010BD0000A3
:1013700053494752545245443A2052656469726554
:1013800063743A2063616E2774206F70656E3A2033
:101390000000000001491820ABBEFEE72600020055
:1013A00010B50346406801E003464068002801D0BC
:1013B0008842F9D31868C3188B4206D0CB1CD808D2
:1013C000C000001D411A521A0146081D0A60FFF7AD
:1013D00085FD10BD10B50146C268900703D0900688
:1013E00007D5886A0AE000F03DF801210160881EF7
:1013F00010BD8B694868C0180B69C01A40310B7A60
:10140000002B02D0497A401A10BD1103FCD50028E8
:10141000FADD401E10BD70B505460C460A2000E0FE
:101420006D1C00F018F8002D06D028780028F7D1A0
:1014300002E0641C00F00FF8002C02D02078002895
:10144000F7D10A2000F007F870BD10B500F00EF8D3
:10145000FFF780FF10BD08B5694608700320ABBEDA
:1014600008BD704700487047EC05002010B5012802
:1014700005D0002103A0FFF7CEFF012010BD09A178
:10148000F8E7000053494752544D454D3A204F75F7
:1014900074206F662068656170206D656D6F72796C
:1014A000000000003A2048656170206D656D6F7224
:1014B0007920636F727275707465640030B58C1832
:1014C0000278401C13071B0F01D10378401C12093E
:1014D00006D10278401C03E00578401C0D70491CC1
:1014E0005B1EF9D101E00B70491C521EFBD1A142D9
:1014F000E6D3002030BD0000B0B5EFF3108072B627
:1015000001221503094C2046294600F0C8FC084872
:1015100000BF401EFCD1A9B20022204600F0BFFC53
:10152000044800BF401EFCD1EAE7C0460004004862
:10153000801A060000350C00F0B589B00D4607464C
:101540000026002D5ED0012041028A425DD805921E
:10155000C9490978002900D1C9E0F80A7F21014072
:10156000F148415C3A0A0724224001200346934097
:101570000B4200D1BBE000F09FFA0346EFF310816D
:10158000EFF3108072B6BC4802469069936100295F
:1015900000D162B601968342059A0CD2EFF3108017
:1015A000EFF3108172B6B4490E463169491C3161BE
:1015B000002800D162B65C480490FE30074001214B
:1015C000CE04EFF30580002800D106463E43002AF2
:1015D0001ED02704082A23D800200690079006A8CA
:1015E000294614461D46FEF797FE21043940314333
:1015F000032000060843079B069A294600F09AF844
:1016000009B0F0BD304609B0F0BD304609B0F0BDBC
:10161000002230461946134600F08CF809B0F0BDA0
:10162000029700910393EFF31081EFF3108072B6ED
:10163000914803465878421C5A70002900D162B67E
:1016400029796A7912020A43A979EB791B020B43C3
:101650001B041343A978EA782F786C780793240247
:101660003C4312020A4312042243069207040298E2
:1016700007403E43009800063043039900F05AF8B3
:10168000002836D004980743059A10022749029192
:1016900041180835083A079C069E092A2CD3287859
:1016A0000491697809020143A8780592EA78120248
:1016B000024316040E432879697909020143A87987
:1016C000EA791202024314040C4338460399324665
:1016D000234600F02FF80499059A029BC918083593
:1016E000083A7F1C0028D8D106960794019809B0C3
:1016F000F0BD019809B0F0BD069607940020069051
:10170000079006A80C462946FEF706FE0848074043
:101710003C43009840062043079B069A039900F03B
:1017200009F809B0F0BDC04601FF000000F8FFFF56
:10173000FF00FFFDF0B58BB0044601256807970850
:1017400007402807CE08064026433E430995A807D0
:101750005C0804403443019446480340049302402B
:101760000392009001400291EFF31080EFF310819B
:1017700072B63F210691C943CA4D0A9169684A1C55
:101780006A60002800D162B6069801400901C74886
:1017900007914418EFF31081EFF3108072B6E768F9
:1017A000099EB206384608921040032293063B4336
:1017B000F2063E469643002800D03346E3602346B7
:1017C0000C33002902D0002803D033E062B6002891
:1017D00030D10098401C0590B8430146029D294332
:1017E000B24D079EA9510146039D29430646049D1B
:1017F0002E436160A660099909057C180F2109052F
:101800002140019C214301431143EFF31080EFF38A
:10181000108472B61C682240089DAC43059D6C4044
:10182000002A00D00C461C60002800D162B6002AB5
:101830009C4D10D1EFF31080EFF3108172B60A992E
:10184000491C9AD1E968491CE960002109910028E6
:101850000CD162B60AE0EFF31080EFF3108172B69C
:10186000A968491CA960002800D162B609980BB08C
:10187000F0BDC046FFFFFF7FC0040020F0B582B07E
:1018800003460020FE294CD8FE2A4AD80120914266
:1018900047D800900193DC070CD00D468448EE0831
:1018A000875D07232B4001249C403C4384556D1CDD
:1018B0009542F4D9019B9B070ED50D4607232B407B
:1018C00001269E40EB087A4CE3182027DC5D344368
:1018D000DC556D1C9542F1D9019B5B0700980ED534
:1018E0000D4607232B4001269E40EB08704CE31861
:1018F0004027DC5D3443DC556D1C9542F1D9019BDA
:101900001B070ED56A4B07240C4001200546A54055
:10191000CC081C196026A75D2F43A755491C91428E
:10192000F1D902B0F0BDC04640040020F0B583B04C
:10193000019100901720C04301210291C903554A2B
:10194000554B564D2C462C40554E3618367E360299
:10195000664077003C465C400E4200D027467C0043
:10196000144026465E400F4200D0344667001740C0
:101970003E465E400C4200D037467C00144026466E
:101980005E400F4200D03446670017403E465E403E
:101990000C4200D037467C00144026465E400F4281
:1019A00000D03446670017403E465E400C4200D0EF
:1019B00037467C00144026465E400F4200D0344635
:1019C000401CC0D1374D296A374881421DD1A0B291
:1019D000698881421AD1E869411CE9610028029CAA
:1019E00017D00020314902018A18D26883000124EF
:1019F000A406224205D09B00CB180324A406A243D0
:101A0000DA60401C4028EED11FE028626C80029C06
:101A1000EC61A1022548FEF7DEFC25488021FEF797
:101A2000DAFC0026FE2200983146FFF727FF0198D6
:101A3000002800D104462C706E706E60AE60EE60BF
:101A400000F040F82E616861AE6100F035F80146A3
:101A5000EFF31082EFF3108072B6A869A961002A33
:101A600002D081420ED202E062B681420AD2EFF386
:101A70001080EFF3108272B62A69521C2A61002886
:101A800000D162B6EA690B480023FFF753FE01203C
:101A900003B0F0BDFEFF010021100000FFFF0000B9
:101AA00034430008C00400206B27A5E1400000205B
:101AB0004004002000FF000304490868421C0A603B
:101AC0007047C0460149002008607047E4040020C8
:101AD000F0B581B005460020C6436F1C00F0E8F960
:101AE0000446002F02D0F4480078461900F0E0F9CF
:101AF000001BB042FAD301B0F0BDC046F0B58DB0C6
:101B00000A90002900D1D7E0DA4A0320009005208E
:101B10000A9B934200D000900920C2060024E043B3
:101B20000C90D7480990D74801909342089167D00C
:101B3000012726460497781E049A824013460B40DC
:101B4000002B55D00B940C2434400F210691A1405A
:101B50000790800885000998029540590391084034
:101B6000CA4D0A99A94205D0C74DA942009D02D18C
:101B7000012500E002250592A540A84215D10C9947
:101B80004B40019C206818402060606818406060ED
:101B9000E0681840E060A0681840A060039A4A40DE
:101BA0000999029BC8581040C85003210B988140E6
:101BB0000C9D69400A9C2068084020601C20304031
:101BC000069A82406A4007984008AB4B0340E018F1
:101BD000036A13400362E0680840E060059A6A40C7
:101BE000606810406060A0680840A0600B9C089985
:101BF0000846F840A41C361D7F1C00289BD15BE0E2
:101C00000492012500273A460695681E069E8640E6
:101C100034460C40002C47D00B920C233B400F2243
:101C200001461046984007918B089B00099905933F
:101C3000CB58034215D10C994C4001990B682340B5
:101C40000B604B6823404B60CB682340CB608B68B4
:101C500023408B600C9948400999059C0B5903401F
:101C60000B5103240B9884400C98444003460A9976
:101C70000868204008601C20384082405A4007987D
:101C800040087D4B03400498C018036A13400B9A28
:101C90000362C8682040C8600C98464048683040DD
:101CA000486088682040886008990846E8403F1DE1
:101CB000921C6D1C0028A8D10DB0F0BDF0B58DB000
:101CC0000C68002C00D1D2E06A4A0323009305235C
:101CD000904200D00093012200252E460392134625
:101CE000099101900B9608935B1E039A07939A4003
:101CF00014400494002C00D1AEE006954F680326F2
:101D000038463040451E0023DC43012D0A940293DF
:101D1000059719D8354639460B9FBD406540019B54
:101D20009C682C40099DED68BD4025439D600C09D1
:101D30000125254007998D400A994A405C68144066
:101D40002C435C600A9C05E003280B9F02D1019B99
:101D5000069D24E03246BA406240019BDC68144094
:101D600009998A68BA4022430A9CDA600228069DD3
:101D700015D11C2028400F228240624007994C0850
:101D80003D4D25405C19256A154009990A69824034
:101D90002A43069D099922620A9C48680590059984
:101DA000084630401F460B9B984032049E406640D8
:101DB00023463C68344004433C601142099938464C
:101DC0004AD01C462D4B196801221143196019682D
:101DD00011400C910C2129400F238B4063400C9C37
:101DE000079CA408A600264C34591C400923DD0694
:101DF000244FA842029B09D08B4DA84205D0234A0C
:101E00009042009B02D1022300E013468B40234303
:101E10001B497350049B0A9E5E40BA683240099980
:101E20004D68EC02E4171C401443BC60AA02D217B0
:101E30001A40FC6834401443FC60AA03D2171A40CD
:101E40007C68344014437C60EA03D4171C403A6831
:101E5000324022433A60069D0C682246089BDA40D5
:101E60002D1D0B9EB61C5B1C002A00D03AE70DB05E
:101E7000F0BDC046000C0048FCFFFF7F1810024078
:101E80000800014000040140000400480008004828
:101E900002690A400120002A00D11046704703461B
:101EA00018332830002A00D103461960704700001B
:101EB000014880687047C0460C000020B0B5044659
:101EC0000120002C12D04125242060552068016893
:101ED000012291430160204600F05CF8002060641C
:101EE000605520634221605440216054B0BD000021
:101EF000F0B581B004460120002C45D04120205C83
:101F000025464135002805D1402000212154204696
:101F100000F058F8242028702068026801218A43C4
:101F200002600F2212066368934303618368174AB5
:101F300013408360CE0321239F02E368012B00D06E
:101F40003E46A76837438760022B01D1CB0243602E
:101F500043680F4E1E434660C3681340C360226946
:101F600063691343A26912021A43C260E269236AD9
:101F70001343036002680A4302600020606420216A
:101F8000297020634221605401B0F0BDFF7FFFFF44
:101F900000800002B0B500682149884200D0B0BD81
:101FA0000125680506490A6882430A60A9021E4C99
:101FB0002046FFF7A3FDE9022046FFF79FFDB0BDD5
:101FC0001C100240B0B586B0002105910491039128
:101FD0000291019100681249884201D006B0B0BD5B
:101FE0000125A8040F4C21680143216021680140AC
:101FF0000091009803208102019112210291039522
:1020000004900595084801A9FFF758FE6805A168E6
:102010000143A160A16801400091009806B0B0BDE5
:10202000005400401410024000040048F0B589B08C
:10203000089317460E4604464120205C2146413154
:102040000225202841D1002E3CD0002F3AD040203C
:10205000205C22464032012837D0012501921570BC
:102060000691FFF725FF079022200699087042206D
:102070002021039121540022626466626785608D8D
:1020800020856263EB0320684168059399434160B2
:1020900004952F0423464233816908263142029376
:1020A00016D1089D691C15D0002D18D11546FFF7D3
:1020B000FFFE20688169314200D1B6E0816931427A
:1020C000F5D01CE0012568026064E8B209B0F0BDFB
:1020D000154614E0154681693142FCD00FE01546E3
:1020E000FFF7E6FE0799411A2068089A914203D942
:1020F0008169314200D198E081693142F0D0C661F6
:1021000081693942079E1FD0089A511C0BD0002AC2
:102110000DD1FFF7CDFE20688169394275D1806904
:102120003842F6D110E081693942FCD10CE0FFF76A
:10213000BFFE811B2068089A914202D98169394209
:1021400063D180693842F2D1608D0028059E089FD6
:1021500016D020463946079A01F078F92168002800
:102160001BD1486A616A0870606A401C6062608DB9
:10217000401E6085208D401E2085608D0028E8D19E
:1021800020463946079A01F0DBF9216800280DD076
:10219000486830434860049D97E74868304348608A
:1021A00088690422104251D1049D8EE70398C861CA
:1021B000886930421ED0781C0BD0002F0DD1FFF75C
:1021C00077FE2168886930424ED188693042F6D165
:1021D00010E088693042FCD10CE0FFF769FE0799F6
:1021E000401A2168B84202D9886930423CD18869D6
:1021F0003042F2D148683043486006980399017034
:1022000002980570019805705FE7069A019B059E8C
:10221000616C039F39436164177002990D701D70E2
:10222000416831434160049D4FE7616C039A11435B
:10223000616406990A700021029A1170019A117066
:102240004168059A11434160049D3EE7486A616A0E
:102250000870606A401C6062608D401E6085208D41
:10226000401E2085049D30E7069A019B606C039F09
:10227000384360641770029805701D7048683043D9
:102280004860049D21E7F0B589B017460E46044624
:102290004120205C214641310225202852D1002EC8
:1022A0004DD0002F4BD04020205C224640320128E8
:1022B00048D006930125029215700791FFF7F8FDAB
:1022C0000890212007990870422020210491215470
:1022D0000023636466622E4667856363F2032168A8
:1022E0004868059290434860224642328869082730
:1022F00038420193039228D1069D681C0CD0002D12
:102300000ED1FFF7D5FD21688869384200D106E17A
:1023100088693842F5D019E088693842FCD015E068
:10232000FFF7C6FD0899401A2168A84203D98869B9
:10233000384200D1F3E088693842F1D006E0012547
:1023400068026064E8B209B0F0BD069D7004226ABC
:10235000824207D1606A02788A62401C6062608DA6
:10236000401E6085CF6106963604E068022824D1BD
:102370008869384220D1681C0CD0002D0ED1FFF79F
:1023800097FD21688869384200D1FCE088693842AD
:10239000F5D011E088693842FCD00DE0FFF788FDE8
:1023A0000899401A2168A84203D98869384200D1A7
:1023B000E9E088693842F1D0CF61059F88693042F1
:1023C00058D0608D0028069E12D020462946089AD3
:1023D00001F002F9216800286CD1606A02788A62F3
:1023E000401C6062608D401E6085608D0028ECD1CD
:1023F00088691026304220D1681C0CD0002D0ED1E7
:10240000FFF756FD21688869304200D1AAE088694B
:102410003042F5D011E088693042FCD00DE0FFF782
:1024200047FD0899401A2168A84203D988693042BB
:1024300000D197E088693042F1D0886902221042C9
:1024400001D00198886288690126304203D18869E9
:10245000012202438A611020C86120462946089A59
:1024600001F06EF82168002829D048683843486098
:10247000354667E7681C0BD0002D0DD1FFF718FD1E
:102480002168886930425CD088693042F6D098E78C
:1024900088693042FCD094E7FFF70AFD0899401A9A
:1024A0002168A84202D9886930424AD088693042FE
:1024B000F2D086E7486838434860354642E70498DA
:1024C000C861886938421ED0681C0BD0002D0DD120
:1024D000FFF7EEFC21688869384265D18869384287
:1024E000F6D110E088693842FCD10CE0FFF7E0FC3F
:1024F0000899401A2168A84202D98869384253D104
:1025000088693842F2D1486838434860079804998E
:102510000170019D039805700298057012E7374617
:10252000079A029B059D606C049E304360641670A0
:102530000020039A107018704868284348603D4690
:1025400000E7079A029B069E606C049D2843606426
:1025500015700020039A107018704868384348605E
:102560003546EFE6079A029B069E606C049D284361
:10257000606415700020039A107018704868384322
:1025800048603546DEE6606C049A10436064079844
:1025900002700020039A1070029A10704868059A21
:1025A00010434860069DCDE6606C049A1043606459
:1025B00007980270019A03980270029802704868A6
:1025C000384348603546BDE618480178826851189E
:1025D0008160704780B5C648016810220A430260D6
:1025E000032000F005F800F023F8002080BDC0466D
:1025F00070B504467D20C0000C4E317801F0F4FC2B
:102600000146C348006801F0EFFC00F087FB01259C
:10261000032C08D8002806D10025E84321462A4685
:1026200000F01CF87460284670BDC0460C00002005
:1026300082B009480168012211430160016811401C
:1026400001910199110742680A43426040680840BD
:102650000090009802B0704718100240C200182382
:1026600013408901C9B29940FF229A40D243002801
:1026700004DB03239843084BC01806E00F231840DF
:10268000083803239843034BC018036813400B43D7
:10269000036070471CED00E000E400E0F0B589B095
:1026A000044601231904A078C0073E4E64D001916E
:1026B000059403200790C04330581C021A070021DC
:1026C000394F104209D10320C043315811433150D2
:1026D00030581040089008981946029304910392CC
:1026E000386820420FD1386820433860FFF7E0FB9C
:1026F00005463868204206D1FFF7DAFB401B642804
:10270000F7D9079F4BE0079F380231680140274AFD
:1027100006920029059C20D06268024091421CD09C
:1027200030683168019A11433160316891433160FA
:102730000146069A11403160029908420DD0FFF718
:10274000B7FB054630680221084206D1FFF7B0FB0F
:10275000401B69498842F5D921E030680699084054
:102760006168014331600498012805D10320C0430A
:102770003158039A9143315020680121084205D015
:10278000316903229143A2680A433261002780061F
:1027900005D5306910218843E16801433161F8B201
:1027A00009B0F0BD2010024000700040FFFCFFFFA8
:1027B000F0B583B004460125002C00D195E04C4BC8
:1027C0001A68012002408A4209D21A680125AA43E8
:1027D0000A431A601A682A408A4200D085E00193B1
:1027E00002912168434F022211420CD04A0704D5BE
:1027F000072212023B6813433B603A68F0239A4376
:10280000A36813433B60C9072CD06168012907D135
:102810000320C043385801256A04104265D00BE0FC
:102820000322D243BA58022903D1920105465CD54E
:1028300002E09207054658D538680325A8430843A7
:102840003860FFF735FB064638680C2101406068A8
:102850008000814206D0FFF72BFB801B264988426F
:10286000F2D942E0019A1068012528400299884275
:1028700007D91068A84308431060106828408842B0
:1028800033D12078400706D50720000239688143FC
:10289000E0680843386039680C220A401748082A63
:1028A00016D18B0C0F221340154CE45CBB6A2D042F
:1028B000294204D1144A002120460B4606E0134069
:1028C0001049C95C01F090FB00232246FDF77CFC17
:1028D000396809090F220A400C49895CC8400C4933
:1028E00008600320FFF784FE0025E8B203B0F0BDC6
:1028F00000200240041002408813000000127A00F9
:10290000634300087343000800093D0024430008A6
:1029100018000020F0B587B001220590002800D1F2
:10292000EAE1012004900004039005980078C007B4
:10293000F54E4FD071680C200140049A57040429C9
:1029400007D07168014008290CD1706803990842CA
:1029500008D0306838423DD005984068002839D109
:10296000049AC9E105984268E848E949002A0CD070
:10297000012A06D03368052A1AD10498800403433B
:10298000336031680398014316E032680A403260D0
:10299000316801403160FFF78BFA054630683842F4
:1029A00018D0FFF785FA411B03226429F6D9A3E169
:1029B0000B403360316801403160FFF779FA05461A
:1029C0003068384206D1FFF773FA411B03226429AD
:1029D000F6D991E105980078800748D571680C20F8
:1029E00001421DD071680140082903D17068039924
:1029F000084215D00598C168306800291ED0012111
:102A000008433060FFF754FA054630680221084257
:102A100025D1FFF74DFA411B03220229F5D96BE1BD
:102A2000306802210842059A03D0D068012800D0FE
:102A3000C1E03068F8218843116915E0012188431D
:102A40003060FFF735FA05463068022108420ED0A3
:102A5000FFF72EFA411B03220229F5D94CE1306819
:102A6000F821884305990969C90001433160059837
:102A70000078000726D50598C169706A002910D032
:102A8000012108437062FFF713FA0546706A0221BC
:102A9000084217D1FFF70CFA411B03220229F5D98E
:102AA0002AE1012188437062FFF702FA0546706A45
:102AB0000221084206D0FFF7FBF9411B032202293D
:102AC000F5D919E10599087840071CD40878C006A3
:102AD0007BD5059A516901294CD1706B04210143C2
:102AE0007163706B012101437163FFF7E1F90546E2
:102AF000706B0221084260D1FFF7DAF9411B032213
:102B00000229F5D9F8E001231F021907F069002214
:102B1000804C084207D1F0690843F061F069084031
:102B2000069006981A4600A80EC0206838420FD1B9
:102B3000206838432060FFF7BBF90546206838421B
:102B400006D1FFF7B5F9411B03226429F6D9D3E07A
:102B500005988168704F002917D00129029A06D084
:102B6000306A052900D087E0042108433062306ACA
:102B7000104386E0706B491D55D104218843706372
:102B8000706BF821884391691CE0306A0299884390
:102B90003062306A042188433062FFF789F90546C4
:102BA000306A022108427BD0FFF782F9411B0322E1
:102BB000B942F5D9A0E0049A9EE0706BF8218843F1
:102BC00005998969C900014371630598046A002C5D
:102BD00000D190E070680C210140082903D1012C3C
:102BE00036D1049A88E001200206316804929143AC
:102BF00031604706FFF75CF90546022C09D13068C1
:102C0000384257D0FFF754F9411B03220229F6D965
:102C100072E0306838426ED0FFF74AF9411B032258
:102C20000229F6D968E0042108437063706B012122
:102C300088437063FFF73CF90546706B0221084238
:102C4000C3D0FFF735F9411B03220229F5D953E020
:102C50007068039B0340F16A059C626A93424ED1FF
:102C60000F221140E36A99424BD191040840A16AB6
:102C70008842049A40D13EE090433062306A042199
:102C800088433062FFF714F90546306A0221084292
:102C900006D1FFF70DF9411B0322B942F5D92BE00C
:102CA00001980128059900D010E7F069009A904337
:102CB000F0610BE7F06A0F218843059AD16A01435E
:102CC000F1623D20000471688143906A0843516AB3
:102CD000014371603068049908433060FFF7E8F8F9
:102CE00004463068384206D1FFF7E2F8011B0322A0
:102CF0000229F6D900E00022D0B207B0F0BD049A54
:102D0000FAE7049AF8E7C04600100240FFFFFBFF15
:102D1000FFFFFEFF0070004088130000421E130EEC
:102D200001200849002B0CD1074B5A600748026864
:102D30000A400321890711430160002098600721A0
:102D400019607047FFFFFF0010E000E020ED00E099
:102D5000B0B504460120002C5ED03D20205C254605
:102D60003D35002805D13C2000212154204600F0AB
:102D70005BF80220287020680268CE49884202D0A1
:102D80002749884204D170218A43A168114300E099
:102D90001146244A90420ADDC64A90420DD0C94AE3
:102DA00090420AD0C84A904207D00A460AE01C4A1C
:102DB000904202D0264A90422FD103221202914320
:102DC00022690A4380218A43A16911430160E168B5
:102DD000C16261688162F149884205D0F149884247
:102DE00002D0F149884201D1616901630121416149
:102DF000462021543E2021543F202154402021547C
:102E00004120215442202154432021544420215464
:102E10004520215429700020B0BD0A46D2E7C046A3
:102E200000040040FF2B014081B00068DF49884268
:102E300001D001B070470120000206490A68024330
:102E40000A60096801400091009801B07047C046CF
:102E5000002000401C100240F0B585B03C23C45C4B
:102E600003463C330227012C00D11FE101271F70CC
:102E70000226F241FC020294FD4C03948E4D8F4CCD
:102E800001948F4C0494032A00D90DE17A441279FD
:102E90005200974401243D580268106A0124A0435F
:102EA0001062106AB043556896698F6807437320B3
:102EB00086430C68344310461830ED4EB2420495F8
:102EC00006D0E84EB24203D0E74EB24200D0C3E093
:102ED0000C26B743CE680425AE433E43BDE00268EE
:102EE000106A1026B0431062106A2026B04354685E
:102EF000009497698E68360106432F4008680502E2
:102F00003D4310461830039CA24241D0344646E06F
:102F1000012635020268106AA8431062106A5468DC
:102F20000294D7697325AF430C683C430094750243
:102F3000A8438D682E02064310461C30039CA24213
:102F40004FD0344655E0012634030268106AA0438E
:102F5000106203967003166A86435768D0698C68BE
:102F60002403344328400D682D02054310461C30CD
:102F7000E34EB24205D0E34EB24202D0E24EB2423C
:102F800059D1039EB603B7434E69B6013E4353E0A1
:102F9000C024A643CC6824014F27BC433443D84EF9
:102FA000B242009F05D0D74EB24202D0D64EB242B6
:102FB00009D1019E37404E6903958D69B6003E43A5
:102FC000AF00039D3743029E576095614D6895633E
:102FD00014629469344394619469049D2C40946113
:102FE00037E0019C2640049DFF3DCC6824022C4024
:102FF0003443C34DAA42029F05D0C24DAA4202D01B
:10300000C14DAA4208D103252D03AF434D698E69F6
:103010002D013D4337012F435760009DD5614D6819
:10302000D5631462D46908252543D561D469042584
:10303000AC43D46133E03E465660D5614D681564BB
:103040001462D469029D2C43D461D469049D2C4040
:10305000D4610969090223E03E46A94DAA4205D080
:10306000A84DAA4202D0A84DAA420AD103252D029A
:103070000394049CAC434F698D692743039C2F4301
:1030800000E0049F576094614C6854631662946931
:1030900008252543956194690425AC439461096929
:1030A00002680A430260002700201870F8B205B0D9
:1030B000F0BDC046002C0140FF8CFFFFFFF3FFFF77
:1030C000FFFBFFFF0048014000440140B0B504464B
:1030D0000120002C5ED03D20205C25463D35002897
:1030E00005D13C2000212154204600F061F8022047
:1030F0002870206802688249884202D05B49884271
:1031000004D170218A43A168114300E01146244A8A
:1031100090420ADD7A4A90420DD07A4A90420AD013
:10312000794A904207D00A460AE0504A904202D0BB
:103130001E4A90422FD103221202914322690A4370
:1031400080218A43A16911430160E168C16261681D
:1031500081626B49884205D06A49884202D06A4937
:10316000884201D1616901630121416146202154F6
:103170003E2021543F2021544020215441202154FD
:1031800042202154432021544420215445202154DD
:1031900029700020B0BD0A46D2E7C046002C01408D
:1031A000FF2B014000480140004401400020004046
:1031B0007047000010B50022002908D00223032226
:1031C000082900D013460122042900D01A4682188B
:1031D0003E23D45C0122012C3FD1002905D00829CF
:1031E00006D0042906D13F2205E00222C25404E0A1
:1031F000402200E04122022383541F221140012378
:103200001A468A400068016A91430162016A1143CB
:1032100001621349884206DC1449884213D03849B8
:10322000884206D015E03749884202D036498842A4
:103230000FD1D903426C0A4342643149884202D01B
:103240000A49884205D1816807240C400022062CD7
:1032500003D00168194301600022104610BDC0462A
:10326000FF43014000480140004401400004004089
:10327000002C0140F0B51F230B40012214469C4056
:1032800003681D6AA5431D621C6A1C621A4C1B4D13
:103290001B4EB34205D01B4EB34202D01A4EB3426E
:1032A00009D11E6A2E4206D11E6A264203D1D603D8
:1032B0005F6CB7435F641E6A2E4202D11D6A2542CD
:1032C00011D0082914D0042905D0002907D13E21A6
:1032D00042540020F0BD3F2142540020F0BD412166
:1032E00042540020F0BD1C6894431C600829EAD1B8
:1032F000402142540020F0BD4404000011110000A0
:10330000002C0140004801400044014080B5FEF718
:10331000F3F880BDF0B587B016460D46044601208F
:103320000690070221688B6900221020034202D117
:103330000592069849E00497C861886920273842B9
:103340003ED1204642300390681C36D0002D09D073
:10335000FEF7AEFD801BA84206D821688869384276
:10336000F6D02DE0FEF7A4FD0123980321684A68FA
:10337000019002400398007802900593D8038B696E
:103380000340029820280AD0002A08D1002B06D03A
:103390004868019A10434860FEF78AFD0646216896
:1033A0008869384205D1FEF783FD801B1A28F6D3C1
:1033B00046E088693842C9D002E088693842FCD0CA
:1033C000CF61042206980590049F830288693842E1
:1033D00003D0CF6101273A4300E0059F0126750223
:1033E000184208D0CB6108231A43284206D0CD6189
:1033F0000220024305E03E462842F8D10020002E7C
:103400001CD088690223184201D0002088628B6991
:103410000120034203D18B6901251D438D614B6857
:10342000464D1D404D60616C114361644121202275
:1034300062544221002262544021625407B0F0BD20
:10344000216888692422049F0698BEE7F0B581B000
:1034500015460E460446206880690021042738423C
:103460003ED1002E00911ED0204631462A46FFF75D
:1034700051FF0146012000295ED121680A46183219
:103480008869202318422ED1FEF712FD411B2068C7
:10349000B14202D98169394244D080693842E3D0CF
:1034A000009801B0F0BD0026204631462A46FFF7BD
:1034B00031FF0146012000293ED121680A46183219
:1034C0008869202318420ED1FEF7F2FC2068826939
:1034D00004210A4226D0806908423046E3D02BE01E
:1034E000084601B0F0BD1068384203D0208D002896
:1034F000009821D11368002010221342034601D006
:10350000CA613B4663642022CA614B680B4D1D4073
:103510004D60412162544221605440216054012099
:1035200001B0F0BD606C202108436064412021544B
:10353000402000212154012001B0F0BD00E800FE30
:10354000F0B581B015460E4604462068806900211A
:103550002027384230D1002E18D000912046314625
:103560002A46FFF7D7FE01460120002922D1FEF7A7
:103570009FFC411B2068B14202D9816939421ED0AB
:1035800080693842EAD0009801B0F0BD002620469C
:1035900031462A46FFF7BEFE01460120002909D127
:1035A000FEF786FC20688169394208D0806938427C
:1035B0003046EBD001B0F0BD084601B0F0BD606C04
:1035C0003843606441202754422000212154402088
:1035D0002154012001B0F0BDF0B581B015460E4672
:1035E00004462068806900210227384228D1701CD7
:1035F00016D0002E27D10026204631462A46FFF756
:1036000089FE01460120002942D1FEF751FC2068C5
:103610008169394230D0806938423046EBD037E09A
:103620000026F14320462A46FFF774FE014601209A
:1036300000292DD12068806938423046F0D027E03B
:10364000084601B0F0BD0091204631462A46FFF7FA
:1036500061FE0146012000291AD1FEF729FC411B19
:103660002068B14202D98169394205D08069384267
:10367000EAD0009801B0F0BD606C2021084360647E
:103680004120215442200021215440202154012076
:1036900001B0F0BDF0B58DB000240C940125E90413
:1036A000604802680A43026002680A40079207996C
:1036B000A90502680A43026002680A400792079956
:1036C000690402680A43026002680A400792079987
:1036D000A90402680A43026000680840079007983E
:1036E000032086032048039031462246FEF7D7FB8D
:1036F0001E480590C32739462246FEF7D0FB092015
:10370000C00604901A4901912246FEF7C8FBE24820
:103710000690184902912246FEF7C1FB08960995CA
:103720000A940B9408AE03983146FEF7C7FA08973F
:1037300009950A940B9405983146FEF7BFFA019853
:10374000089009950A940B9404983146FEF7B6FA4E
:103750000298089009950A940B9406983146FEF752
:10376000ADFA0DB0F0BDC046000800480014004896
:10377000EF9F0000FFF30000F0B58DB00024069429
:10378000059404940394029401940094234F244ECE
:10379000FE603C617C617868B861FC617C623D469A
:1037A0000C352846FFF7D4FA002835D12846FFF714
:1037B0008DFC002830D160200090B8680190029400
:1037C0000494694628462246FFF746FB002823D189
:1037D00000200C900B900A9009900890F968B14273
:1037E00001D00DB0F0BD01214904EC4A13680B4330
:1037F000136012680A40079207991021089102216C
:1038000009910A910B9004200C900920C00608A988
:10381000FEF754FA0DB0F0BDFDF76EFE5006002025
:10382000002000401410024080B5FDF765FE80BD09
:103830007047704780B5FEF7C7FE80BDB0B594B045
:1038400008AD281D2C21FCF7C6FD00240794069422
:103850000594049403940294019400940220089027
:1038600001200B9010200C9010942846FFF752F87E
:10387000002814D10720049005940694079404A806
:103880002146FEF795FF002809D1202000900394DF
:103890006846FEF703FF002801D114B0B0BDFDF764
:1038A0002BFE7047084942180021C843022A00D85D
:1038B0000846704700207047034942180120002144
:1038C000032A00D308467047FF7FFFFF70B5044608
:1038D0000020C543002C1BD020783A281AD10F496C
:1038E0002046FCF77BFD0E4E002815D00D492046E2
:1038F000FCF774FD0146701C002908D00A492046D7
:10390000FCF76CFD0146B01C002900D0284670BDB4
:10391000284670BD284670BD304670BD544300082F
:10392000018000005B4300084C4300080020C043B6
:1039300070470000F0B581B014460D4601460026E0
:10394000F043164A914222D0154A914220D1002CD0
:1039500020D0144F386829464D1C072809D809780B
:10396000421C3A60381801710A2905D0082A03D090
:103970001046641EEFD107E0391D0B48FDF7DCFD52
:1039800000203860641EE6D1304601B0F0BD3046FC
:1039900001B0F0BD304601B0F0BDC046038000006C
:1039A00002800000A406002000FE0200F0B589B0ED
:1039B0000126B102384C20460291FEF769FA05460D
:1039C000F70220463946FEF763FA002D5FD1012841
:1039D0005DD13220FEF77CF8029881B22046FEF7D6
:1039E00057FA0546B9B22046FEF752FA002D4ED1DD
:1039F00001284CD129480168294A2A4D0192914257
:103A00000CD1700529688143296020460299FEF790
:103A100075F820463946FEF771F820480746FEF74C
:103A20004DFA01983860204878601420B860FE6034
:103A300000203862F861B861786138610720C043BE
:103A40002958B20411432950285810400490049872
:103A50000320810204911221059106960790089691
:103A600004A92046FEF72AF9700529680143296058
:103A700029680140039103983846FEF739FA002877
:103A800007D1FEF715FA014608A0FCF7B5FB09B00F
:103A9000F0BDFDF731FDC04600040048B00600202F
:103AA000005400401C1002400E0900202564203AFA
:103AB000207265696E6974206932630A0000000033
:103AC000F0B587B0804E304870603048B060002755
:103AD0007770B770F770FEF77DFDFFF7AFFEFFF769
:103AE000D9FD2B4C2B4820602B4860601420A0602F
:103AF0000125E5602762E761A76167612761A80486
:103B0000264F3968014339603968014002910298B3
:103B100003208102029112210391049505900695DC
:103B2000584802A9FEF7CAF86805B9680143B960A8
:103B3000B9680140019101982046FEF7D9F90028A3
:103B40001FD1FFF719FE34460C34002520462946C4
:103B5000FFF730FB012000F0B9F8322131707068B6
:103B60004843642100F040FAB06020462946FFF740
:103B700081FBFFF701FE20462946FFF71BFB07B03C
:103B8000F0BDFDF7B9FCC04650C30000409C0000EA
:103B9000B0060020005400400E090020141002401E
:103BA000624800797047C046604800787047C04658
:103BB000F0B583B00F2001242146FDF7B7FEFFF7D3
:103BC0007FFF2AA0FCF792FB2C4D2D4E2E4F05E0D7
:103BD00091B20022FEF763F9FFF7E8FE7D20830033
:103BE000032228463146FEF721FA01462203FB480C
:103BF0000029EDD191B20122FEF751F93078012868
:103C00001ED1B0780328E9D8784400794000874471
:103C1000010D050AFFF7C8FF01A90AE0012264238C
:103C20002846394609E002A9202002E0FFF7B8FF44
:103C300069460870012264232846FEF724FB307889
:103C40000028CBD17078022807D0012809D000289D
:103C5000C4D1B07800F048F8C0E7B07800F016F8AA
:103C6000BCE7B07800F032F8B8E7C0465374617230
:103C7000742070726F6772616D000000B0060020E2
:103C8000510600200004004850060020B0B5642111
:103C9000642800D308460122002800D002460A4CBE
:103CA0002270D2B26068504300F09EF9A0600C34DC
:103CB000002520462946FFF7DDFAFFF75DFD204687
:103CC0002946FFF777FAB0BD5006002080B52022C4
:103CD0002028014600D31146BF4A5160012181408E
:103CE000481E00F027F880BD10B56421642800D379
:103CF0000846B94C2060FCF76BFE2121490600F014
:103D000079FAFCF70FFE0022094BFCF7C3FBFCF726
:103D1000E5FD20212028024600D30A4662600121E9
:103D20008140481E00F006F810BDC0460407002080
:103D300000005940F0B585B00446A74884600920CA
:103D4000C506012004900421044201D1002200E0B4
:103D500001222846FEF7A3F80221A00701D4002281
:103D600000E001222846FEF79AF80121600702D4FC
:103D70000022284601E028460A46FEF790F808216E
:103D8000200701D4002200E001222846FEF787F830
:103D90002021E00601D4002200E001222846FEF79F
:103DA0007EF84021A00601D4002200E0012228462E
:103DB000FEF775F88021600601D4002200E00122A0
:103DC0002846FEF76CF82006844E03D40121002219
:103DD000304602E0012130460A46FEF760F8022133
:103DE000E00501D4002200E001223046FEF757F83A
:103DF0000421A00501D4002200E001223046FEF794
:103E00004EF86005764F02D40221002201E0022123
:103E100001223846FEF743F82005029703D401211A
:103E20000022384602E0012138460A46FEF737F8FC
:103E30000498C103E0046B4F039101D4002200E019
:103E400001223846FEF72BF804988103A004019163
:103E500089B201D4002200E001223846FEF71FF8A3
:103E6000049841026004009189B201D4002200E06C
:103E700001223046FEF713F804980702B9B2200475
:103E800001D4002200E001223046FEF708F880212C
:103E9000E00301D4002200E001223046FDF7FFFFDD
:103EA0004021A00301D4002200E001223046FDF7AA
:103EB000F6FF2021600301D4002200E001223046F9
:103EC000FDF7EDFF1021200301D4002200E00122C4
:103ED0003046FDF7E4FF0821E00201D4002200E0B3
:103EE00001223046FDF7DBFF0399A00201D4002236
:103EF00000E001222846FDF7D2FF8021600201D4B4
:103F0000002200E001220298FDF7C9FF40212002B3
:103F100001D4002200E001220298FDF7C0FF0498BE
:103F20000003E10102D481B2002201E081B201224A
:103F30002846FDF7B4FF0498C002A10102D481B263
:103F4000002201E081B201222846FDF7A8FF049873
:103F50008002610102D481B2002201E081B201221B
:103F60002846FDF79CFF009989B2200101D4002268
:103F700000E001222846FDF792FFB9B2E00001D42B
:103F8000002200E001222846FDF789FF0399A000E6
:103F900001D4002200E001223046FDF780FF0498A2
:103FA0004003610002D481B2002201E081B201220B
:103FB0003046FDF774FF019881B2002C05DB00222A
:103FC0003046FDF76CFF05B0F0BD01223046FDF72D
:103FD00066FF05B0F0BDC04604070020000400489D
:103FE000001400480008004843088B421AD30022FE
:103FF00003098B4279D3030A8B425ED3030B8B42B6
:1040000042D3030C8B4227D30902FF2212BA030CBE
:104010008B4202D31212090203D0030B8B4233D31B
:104020001AE0D3E0411A8041401C704703460B431D
:1040300071D443088B42F5D3002203098B4254D339
:10404000030A8B4239D3030B8B421DD3030C8B42E3
:1040500002D394466EE0090AC30B8B4201D3CB0313
:10406000C01A5241830B8B4201D38B03C01A5241B9
:10407000430B8B4201D34B03C01A5241030B8B42BB
:1040800001D30B03C01A5241C30A8B4201D3CB02A6
:10409000C01A5241830A8B4201D38B02C01A52418B
:1040A000430A8B4201D34B02C01A5241030A8B428E
:1040B00001D30B02C01A5241CDD2C3098B4201D3A6
:1040C000CB01C01A524183098B4201D38B01C01A24
:1040D000524143098B4201D34B01C01A524103099B
:1040E0008B4201D30B01C01A5241C3088B4201D34A
:1040F000CB00C01A524183088B4201D38B00C01AF7
:10410000524143088B4201D34B00C01A5241411A1D
:10411000524110007047CA0F00D04942031000D32B
:104120004042534000229C4603098B422DD3030A90
:104130008B4212D38901FC2212BA030A8B420CD3A0
:10414000890192118B4208D3890192118B4204D3C9
:10415000890137D0921100E08909C3098B4201D34C
:10416000CB01C01A524183098B4201D38B01C01A83
:10417000524143098B4201D34B01C01A52410309FA
:104180008B4201D30B01C01A5241C3088B4201D3A9
:10419000CB00C01A524183088B4201D38B00C01A56
:1041A0005241D9D243088B4201D34B00C01A52412D
:1041B000411A00D201465241104663465B1000D3BB
:1041C0004042704763465B1000D3404201B5002077
:1041D000C046C04602BD10B58A68002A02DCFCF762
:1041E00097FC10BD521E8A604A68C0B2531C4B60D7
:1041F000107010BD70B5420064414B005C41120E5E
:1042000039D01B0E38D0FF2A3CD0FF2B3AD0D21821
:104210007F3A40024902400A490A4518ED0106006A
:104220004E43000A090A48430104731A4019190C45
:104230004318990F04D05B08012149075B1A521CEF
:10424000D80904D3401CF50301D19D0607D0FF2AED
:1042500008D2D50506D0E4072043401970BD0125DA
:10426000A843F4E7002A01DCE00770BD2402FF2028
:104270002043C00570BD1B0EFF2A03D0FF2B01D0C9
:10428000E00770BDFF2636064500B54206D84D0052
:10429000B54203D8D218FF2A00D0E7E7004870BD26
:1042A0000000C07F80807F7E7D7C7B7A7978777606
:1042B00076757473727171706F6E6E6D6C6C6B6A03
:1042C0006A696868676666656464636362616160A1
:1042D000605F5F5E5E5D5D5C5C5B5B5A5A5959581E
:1042E0005857575656555555545453535252525188
:1042F000515050504F4F4F4E4E4D4D4D4C4C4C4BDE
:104300004B4B4A4A4A494949484848474747474624
:104310004646454545444444444343434342424260
:10432000424141410000000000000000010203047E
:1043300006070809010000014000000040000020BD
:1043400040040020C0040020000000003A53544400
:10435000455252003A535444494E003A5354444F44
:1043600055540002030405060708090A0B0C0D0E3C
:104370000F10100102030405060708090A0B0C0DB3
:104380000E0F1000C043000800000020F0040000E1
:10439000BC140008E0430008F004002020080000DE
:1043A000F400000800000000000000000000000011
:1043B00000000000000000000000000000000000FD
:1043C000D14201920403FF127A01FF01FF01FF01B4
:1043D000DE000000000000000000000000000000FF
:04000005080000B13E
:00000001FF
